:100000000C945F000C9487000C9487000C9487007C
:100010000C9487000C9487000C9487000C94870044
:100020000C9487000C9487000C9487000C94870034
:100030000C9487000C9487000C9487000C94870024
:100040000C94CB020C9487000C94A7050C94D90552
:100050000C9487000C9487000C9487000C94870004
:100060000C9487000C948700000000080002010037
:100070000003040700000000000000000102040863
:100080001020408001020408102001020408102002
:10009000040404040404040402020202020203032E
:1000A0000303030300000000250028002B000000CC
:1000B0000000240027002A009F02BF020906112425
:1000C0001FBECFEFD8E0DEBFCDBF11E0A0E0B1E0B2
:1000D000E6EEFEE002C005900D92AC37B107D9F70D
:1000E00022E0ACE7B1E001C01D92AF32B207E1F708
:1000F00010E0CEEBD0E004C02297FE010E946D0715
:10010000C83BD107C9F70E944D060C9471070C94A7
:10011000000044E050E063E070E084E891E00E9479
:10012000A20288EE93E090937D0180937C0126E00B
:1001300040E855E260E070E082E991E00C9445050A
:1001400082E10E94AD03909381018093800183E15D
:100150000E94AD0390937F0180937E0165E071E082
:1001600082E991E00E949A0660918001709181017C
:100170004AE050E082E991E00E94400762E171E0CC
:1001800082E991E00E949A0660917E0170917F0160
:100190004AE050E082E991E00E944007209180010E
:1001A0003091810180917E0190917F01253833400B
:1001B000ACF0853893402CF084E891E00E94B502C1
:1001C0006FC08DE790E0909303018093020110923D
:1001D00001011092000168E271E01CC08538934073
:1001E0006CF010920301109202018DE790E0909361
:1001F00001018093000169E371E00CC08DE790E09C
:100200009093030180930201909301018093000178
:100210006BE471E082E991E00E949A06609102012C
:100220007091030184E891E00E94A30260910001B3
:100230007091010184E891E00E94A70220910201DF
:100240003091030180910001909101012817390735
:1002500099F084E891E00E94B50261E070E080E0EE
:1002600090E00E94380384E891E00E94AB0261E0D4
:1002700070E080E090E012C084E891E00E94B50256
:1002800069E170E080E090E00E94380384E891E04A
:100290000E94AB026AE070E080E090E00E943803C8
:1002A00082E991E00C94A30684B5836884BD17BCF1
:1002B00061E086E00C94F30384B5836284BD18BCCE
:1002C00061E085E00C94F303CF93DF9360E08CE072
:1002D0000E942C0460E088E00E942C04C7E0D0E07B
:1002E00060E084E00E942C048091830190E00C2E59
:1002F00002C0959587950A94E2F780FF02C061E0FD
:1003000001C060E088E00E942C0461E084E00E946B
:100310002C04219728F761E08CE0DF91CF910C94B9
:100320002C04CF93DF93EC0161E08CE00E94F30397
:1003300061E087E00E94F30361E088E00E94F3033C
:1003400061E084E00E94F30310928301CE010E94D9
:10035000640160E087E0DF91CF910C942C04E0EB26
:10036000F0E090819368908387708093B100109241
:10037000B30061E08BE00C94F303E0EBF0E09081DC
:100380009362908387708093B1001092B40061E013
:1003900083E00C94F3031F93CF93DF931F92CDB7A9
:1003A000DEB7FC01142F6083418382E891E069830A
:1003B0000E9491016981623039F198F4613009F04D
:1003C00042C080918301837F8093830182E891E022
:1003D0000E946401812F0F90DF91CF911F910C94A7
:1003E000AF01633009F1643071F5809183018E7B38
:1003F0008093830182E891E00E9464010F90DF9175
:10040000CF911F910C945C01809183018D7E80932C
:10041000830182E891E00E946401812F0F90DF91B7
:10042000CF911F910C94BD01809183018F758093B2
:10043000830182E891E00E9464010F90DF91CF91E7
:100440001F910C9454010F90DF91CF911F9108954B
:10045000FC018081823091F018F4813031F00895F0
:10046000833031F0843039F0089573E0E2E008C061
:1004700077E0E5E005C076E0E0E002C074E0E1E0AE
:100480006230D1F0643069F1613009F040C041E080
:1004900050E09A01072E01C0220F0A94EAF7209536
:1004A0000E2E01C0440F0A94EAF780918301842B39
:1004B00028232093830127C021E030E0A9010E2EDC
:1004C00001C0440F0A94EAF74095809183014823C4
:1004D000072E01C0220F0A94EAF7422B40938301B2
:1004E00012C081E090E0AC0101C0440FEA95EAF748
:1004F00001C0880F7A95EAF7842B8095909183014B
:1005000098239093830182E891E00C94640108950C
:10051000FC018081823061F018F4813031F008955F
:10052000833049F0843049F008956093B300089512
:100530006093B400089567BD089568BD0895109252
:1005400082010895089587E891E00C94880285E877
:1005500091E00C94880262E087E891E00E94280212
:1005600062E085E891E00C94280264E087E891E07D
:100570000E94280264E085E891E00C94280242E0A1
:1005800063E087E891E00E94CB0142E064E085E807
:1005900091E00C94CB011F920F920FB60F92112491
:1005A0002F933F938F939F93AF93BF9380918A0133
:1005B00090918B01A0918C01B0918D0130918901B6
:1005C00023E0230F2D3720F40196A11DB11D05C096
:1005D00026E8230F0296A11DB11D20938901809367
:1005E0008A0190938B01A0938C01B0938D0180912F
:1005F0008E0190918F01A0919001B091910101968F
:10060000A11DB11D80938E0190938F01A093900145
:10061000B0939101BF91AF919F918F913F912F9195
:100620000F900FBE0F901F9018953FB7F8948091D0
:100630008E0190918F01A0919001B091910126B50A
:10064000A89B05C02F3F19F00196A11DB11D3FBF0A
:100650006627782F892F9A2F620F711D811D911D9A
:1006600042E0660F771F881F991F4A95D1F70895BA
:100670008F929F92AF92BF92CF92DF92EF92FF92B2
:100680006B017C010E9415034B015C01C114D10474
:10069000E104F104F1F00E9448070E941503681973
:1006A00079098A099B09683E73408105910570F3B9
:1006B00021E0C21AD108E108F10888EE880E83E033
:1006C000981EA11CB11CC114D104E104F10429F746
:1006D000DDCFFF90EF90DF90CF90BF90AF909F90D5
:1006E0008F900895789484B5826084BD84B58160CC
:1006F00084BD85B5826085BD85B5816085BDEEE62A
:10070000F0E0808181608083E1E8F0E01082808108
:1007100082608083808181608083E0E8F0E0808176
:1007200081608083E1EBF0E0808184608083E0EB96
:10073000F0E0808181608083EAE7F0E0808184607E
:1007400080838081826080838081816080838081DA
:10075000806880831092C10008958E3008F08E501A
:1007600087702091040190E4299F90011124822B2D
:1007700080937C0080917A00806480937A008091DD
:100780007A0086FDFCCF809178002091790090E07E
:10079000922B0895833081F028F4813099F08230D3
:1007A000A1F008958730A9F08830B9F08430D1F4F1
:1007B000809180008F7D03C0809180008F7780932F
:1007C0008000089584B58F7702C084B58F7D84BD85
:1007D00008958091B0008F7703C08091B0008F7D25
:1007E0008093B0000895CF93DF9390E0FC01E4582C
:1007F000FF4F2491FC01E057FF4F8491882349F17A
:1008000090E0880F991FFC01E255FF4FA591B4912C
:100810008C559F4FFC01C591D4919FB7611108C0C1
:10082000F8948C91209582238C93888182230AC02E
:10083000623051F4F8948C91322F309583238C934D
:100840008881822B888304C0F8948C91822B8C93AE
:100850009FBFDF91CF9108950F931F93CF93DF93A5
:100860001F92CDB7DEB7282F30E0F901E859FF4FCE
:100870008491F901E458FF4F1491F901E057FF4FBB
:1008800004910023C9F0882321F069830E94CA03E0
:100890006981E02FF0E0EE0FFF1FEC55FF4FA591AF
:1008A000B4919FB7F8948C91611103C01095812386
:1008B00001C0812B8C939FBF0F90DF91CF911F912F
:1008C0000F910895FC01818D228D90E0805C9F4FF7
:1008D000821B91098F7399270895FC01918D828D58
:1008E000981731F0828DE80FF11D858D90E0089505
:1008F0008FEF9FEF0895FC01918D828D981761F025
:10090000828DDF01A80FB11D5D968C91928D9F5F46
:100910009F73928F90E008958FEF9FEF08958FEF70
:1009200095E0892B49F080E090E0892B29F00E9426
:10093000FF0581110C9400000895FC01848DDF01F6
:10094000A80FB11DA35ABF4F2C91848D90E0019642
:100950008F739927848FA689B7892C93A089B18931
:100960008C9180648C93938D848D981306C002883B
:10097000F389E02D80818F7D80830895CF93DF936D
:10098000EC01888D8823C9F0EA89FB89808185FD87
:1009900005C0A889B9898C9186FD0FC00FB607FCE8
:1009A000F5CF808185FFF2CFA889B9898C9185FF29
:1009B000EDCFCE010E949D04E7CFDF91CF91089546
:1009C000CF92DF92FF920F931F93CF93DF931F92EB
:1009D000CDB7DEB76C0181E0D60158968C9358975D
:1009E0005B969C915B975C968C915C97981307C083
:1009F0005096ED91FC915197808185FD2EC0F601B6
:100A0000038D10E00F5F1F4F0F731127F02EF601BB
:100A1000848DF81211C00FB607FCF9CFD60150969D
:100A2000ED91FC915197808185FFF1CFC6016983DB
:100A30000E949D046981EBCF838DE80FF11DE35A7D
:100A4000FF4F6083D6015B960C935B975296ED91B6
:100A5000FC915397808180620CC0D6015696ED912F
:100A6000FC91579760835096ED91FC91519780814E
:100A70008064808381E090E00F90DF91CF911F919F
:100A80000F91FF90DF90CF900895BF92CF92DF92A9
:100A9000EF92FF92CF93DF93EC016A017B01B22EBC
:100AA000E889F98982E08083411581EE5807610564
:100AB0007105A1F060E079E08DE390E0A701960177
:100AC0000E9449072150310941095109569547951E
:100AD00037952795211580E1380798F0E889F9893D
:100AE000108260E874E88EE190E0A70196010E9410
:100AF00049072150310941095109569547953795C4
:100B00002795EC85FD853083EE85FF852083188E43
:100B1000EC89FD89B082EA89FB89808180618083CC
:100B2000EA89FB89808188608083EA89FB898081EA
:100B300080688083EA89FB8980818F7D8083DF9153
:100B4000CF91FF90EF90DF90CF90BF9008951F92CC
:100B50000F920FB60F9211242F938F939F93EF93C1
:100B6000FF93E091A201F091A3018081E091A8019F
:100B7000F091A90182FD12C090818091AB018F5F3D
:100B80008F732091AC01821751F0E091AB01F0E03E
:100B9000EE56FE4F958F8093AB0101C08081FF918F
:100BA000EF919F918F912F910F900FBE0F901F90FB
:100BB00018951F920F920FB60F9211242F933F9307
:100BC0004F935F936F937F938F939F93AF93BF9355
:100BD000EF93FF9382E991E00E949D04FF91EF91D2
:100BE000BF91AF919F918F917F916F915F914F9145
:100BF0003F912F910F900FBE0F901F90189582E993
:100C000091E00E94620421E0892B09F420E0822F08
:100C10000895109295011092940188EE93E0A0E05F
:100C2000B0E08093960190939701A0939801B093C0
:100C300099018FE591E0909393018093920185EC67
:100C400090E090939F0180939E0184EC90E09093BC
:100C5000A1018093A00180EC90E09093A301809388
:100C6000A20181EC90E09093A5018093A40182EC15
:100C700090E09093A7018093A60186EC90E090937A
:100C8000A9018093A8011092AB011092AC011092BF
:100C9000AD011092AE01089508950E9472030E9462
:100CA0004C060E948900CFE8D4E00E94A000209763
:100CB000E1F30E948F04F9CFCF92DF92EF92FF927F
:100CC0000F931F93CF93DF937C016A01EB0100E048
:100CD00010E00C151D0571F06991D701ED91FC91A3
:100CE0000190F081E02DC7010995892B19F00F5F64
:100CF0001F4FEFCFC801DF91CF911F910F91FF9050
:100D0000EF90DF90CF9008956115710581F0DB01C0
:100D10000D900020E9F7AD0141505109461B570BDA
:100D2000DC01ED91FC910280F381E02D099480E0DB
:100D300090E008950C948406DC01ED91FC91019003
:100D4000F081E02D09946BE671E00C9484068F929B
:100D50009F92AF92BF92DF92EF92FF920F931F93F9
:100D6000CF93DF93CDB7DEB7A1970FB6F894DEBF70
:100D70000FBECDBF7C01F42FD52ECB0119A222309E
:100D800008F42AE08E010F5D1F4F822E912CA12CBA
:100D9000B12C6F2F7D2DA50194010E944907F22FE0
:100DA000D32ECA01015011096A3014F4E0E301C0E6
:100DB000E7E3E60FD801EC93232B242B252B49F7EF
:100DC000B801C7010E948406A1960FB6F894DEBF51
:100DD0000FBECDBFDF91CF911F910F91FF90EF908C
:100DE000DF90BF90AF909F908F900895CF92DF9249
:100DF000EF92FF920F931F93CF93DF93EC016A0161
:100E00007B012115310579F4E881F9810190F081A8
:100E1000E02D642FDF91CF911F910F91FF90EF9004
:100E2000DF90CF9009942A303105E9F477FF1AC09A
:100E30006DE20E949C068C0144275527BA014C198B
:100E40005D096E097F092AE0CE010E94A706800F86
:100E5000911FDF91CF911F910F91FF90EF90DF9045
:100E6000CF9008952AE0B701A601CE01DF91CF917E
:100E70001F910F91FF90EF90DF90CF900C94A706F9
:100E80009A01AB01662757FD6095762F0C94F60604
:100E90000895A1E21A2EAA1BBB1BFD010DC0AA1FBB
:100EA000BB1FEE1FFF1FA217B307E407F50720F0D3
:100EB000A21BB30BE40BF50B661F771F881F991F4E
:100EC0001A9469F760957095809590959B01AC0197
:100ED000BD01CF010895EE0FFF1F0590F491E02DA5
:060EE0000994F894FFCF15
:100EE6007D007D00016C65667453656E736F723AA2
:100EF600200020202020202020207269676874535B
:100F0600656E736F723A2000202020203E3E2054EA
:100F160075726E206C65667400202020203E3E208F
:100F26005475726E20726967687400202020203E16
:100F36003E20436F6E74696E75650000000000E028
:100F4600045C0662047B046D04BE040D0A006E6137
:0C0F56006E00696E66006F7666002E006B
:00000001FF
